:100000000C943E000C945B000C945B000C945B0021
:100010000C945B000C945B000C945B000C945B00F4
:100020000C945B000C945B000C945B000C945B00E4
:100030000C945B000C945B000C945B000C945B00D4
:100040000C945B000C945B000C945B000C945B00C4
:100050000C945B000C945B000C945B000C945B00B4
:100060000C945B000C945B000C945B000C945B00A4
:100070000C945B000C945B000C945B0011241FBE7D
:10008000CFEFD0E1DEBFCDBF11E0A0E0B1E0E0E115
:10009000F4E002C005900D92A030B107D9F711E04D
:1000A000A0E0B1E001C01D92A030B107E1F70E94CD
:1000B000B0010C9406020C94000087B1806787B9E8
:1000C00088B18F7888B98FE191EAA7E0815090409C
:1000D000A040E1F700C0000088B1806788B98FE1D7
:1000E00091EAA7E081509040A040E1F700C00000F5
:1000F000089544988FE996E8A1E081509040A0408F
:10010000E1F700C00000449A45988FE996E8A1E025
:1001100081509040A040E1F700C00000459A469809
:100120008FE996E8A1E081509040A040E1F700C03F
:100130000000469A8FE59EEAAAE081509040A040D8
:10014000E1F700C00000089546988FE996E8A1E025
:1001500081509040A040E1F700C00000469A4598C9
:100160008FE996E8A1E081509040A040E1F700C0FF
:100170000000459A44988FE996E8A1E081509040AC
:10018000A040E1F700C00000449A8FE59EEAAAE093
:1001900081509040A040E1F700C000000895CF9347
:1001A000DF93EC01449A459A469A0E94790019C05F
:1001B0004498459846988FE392E4AFE08150904090
:1001C000A040E1F700C00000449A459A469A8FE3A8
:1001D00092E4AFE081509040A040E1F700C0000001
:1001E0002397C430D10524F7C230D10541F0C33084
:1001F000D10521F0C130D10521F402C046984598BF
:1002000044988FE392E4AFE081509040A040E1F742
:1002100000C00000449A459A469A8FE392E4AFE00A
:1002200081509040A040E1F700C00000DF91CF91E5
:100230000895CF92DF92EF92FF92CF93DF9300D099
:1002400000D0CDB7DEB7DC01CB012AE0C22ED12C25
:10025000E12CF12C16C0BC01CD01A70196010E9432
:10026000E401DC01CB0129833A834B835C830E9448
:10027000CF002981822F3A81932F4B81A42F5C815B
:10028000B52F0097A105B10531F70E94A4000F908A
:100290000F900F900F90DF91CF91FF90EF90DF9034
:1002A000CF9008959091C00095FFFCCF8093C60039
:1002B00008959091C80095FFFCCF8093CE000895DB
:1002C0008091C00087FF0CC08091C00084FD0BC0EE
:1002D0008091C00083FD0AC08091C60090E008951F
:1002E0008FEF9FEF08958EEF9FEF08958DEF9FEFB3
:1002F00008958091C80087FF0CC08091C80084FDDC
:100300000BC08091C80083FD0AC08091CE0090E0B0
:1003100008958FEF9FEF08958EEF9FEF08958DEF73
:100320009FEF08951092C50030E43093C400E0ECD4
:10033000F0E080818D7F808328E12093C10096E0EA
:100340009093C2001092CD003093CC00E8ECF0E026
:1003500080818D7F80832093C9009093CA00089587
:100360000E945D000E94920180E30E94520181E39D
:100370000E945901C0E410E1D0E20E9460012FEF19
:100380008F3F920724F488B18C2788B909C02FEFDA
:100390008F3F920729F098B1912798B90E9459018F
:1003A0000E9479012FEF8F3F920724F488B18C27A8
:1003B00088B9E3CF2FEF8F3F9207F9F298B19D27CD
:1003C00098B90E945201D9CFA1E21A2EAA1BBB1BD9
:1003D000FD010DC0AA1FBB1FEE1FFF1FA217B30711
:1003E000E407F50720F0A21BB30BE40BF50B661F27
:1003F000771F881F991F1A9469F7609570958095EB
:1004000090959B01AC01BD01CF010895F894FFCFF9
:00000001FF
